:100000000C94E0000C9408010C9408010C94BF08B7
:100010000C94BF080C94BF080C9408010C940801C0
:100020000C9408010C9408010C9408010C9408012C
:100030000C9408010C9408010C9408010C9408011C
:100040000C941D080C9408010C948D080C946708FE
:100050000C9408010C9408010C9408010C940801FC
:100060000C9408010C94080100407A10F35A00A087
:10007000724E18090010A5D4E80000E87648170071
:1000800000E40B54020000CA9A3B000000E1F505B1
:10009000000080969800000040420F000000A086FB
:1000A00001000000102700000000E803000000002D
:1000B0006400000000000A000000000001000000D1
:1000C00000002C76D888DC674F0823DFC1DFAE59EB
:1000D000E1B1B796E5E3E453C63AE651997696E87E
:1000E000E6C28426EB898C9B62ED407C6FFCEFBC02
:1000F0009C9F40F2BAA56FA5F490055A2AF75C932D
:100100006B6CF9676DC11BFCE0E40D47FEF520E662
:10011000B500D0ED902E0300943577050080841E45
:10012000080000204E0A000000C80C333333330FA0
:10013000986E12831141EF8D2114893BE65516CF3D
:10014000FEE6DB18D1844B381BF77C1D901DA4BB49
:10015000E424203284725E228100C9F124ECA1E5FE
:100160003D2700000000240027002A0000000008AE
:10017000000201000003040700000000000000006E
:1001800000000000230026002900000000002500D8
:1001900028002B00040404040404040402020202E4
:1001A000020203030303030301020408102040803A
:1001B0000102040810200102040810203709C80EAB
:1001C00011241FBECFEFD8E0DEBFCDBF23E0AAE6EB
:1001D000B1E001C01D92AE35B207E1F711E0A0E039
:1001E000B1E0E4E5F1E302C005900D92AA36B10753
:1001F000D9F710E0CFEDD0E004C02197FE010E94B6
:10020000EA12CE3DD107C9F70E94350B0C949D1818
:100210000C940000CF92DF92EF92FF92CF93DF9386
:10022000B0916302A0E08111AB2F8091640290E055
:10023000880F991FAC0140585E4FC0906902D09062
:100240006A02E0906B02F0906C0230E020E0FA016C
:10025000C591D491E881B90190E080E0EB23EA13E5
:100260000AC02F5F3F4F6C157D058E059F0578F303
:100270006FEF7FEFCB01DF91CF91FF90EF90DF9099
:10028000CF90089590E0FC01E459FE4F2491FC01C9
:10029000E855FE4F3491FC01EC56FE4FE491EE23FD
:1002A000C9F0222339F0233001F1A8F4213019F1EB
:1002B000223029F1F0E0EE0FFF1FE657FE4FA59127
:1002C000B4918FB7F894EC91611126C030953E231C
:1002D0003C938FBF08952730A9F02830C9F024300F
:1002E00049F7809180008F7D03C0809180008F77D7
:1002F00080938000DFCF84B58F7784BDDBCF84B55A
:100300008F7DFBCF8091B0008F778093B000D2CFEC
:100310008091B0008F7DF9CF3E2BDACFCF93DF9362
:1003200090E0FC01E855FE4F24918C569E4FFC0155
:1003300084918823C9F090E0880F991FFC01EE5941
:10034000FE4FA591B491FC01E657FE4FC591D491A3
:1003500061110DC09FB7F8948C91209582238C93E6
:100360008881282328839FBFDF91CF910895623031
:1003700051F49FB7F8943C91822F809583238C93FE
:10038000E8812E2BEFCF8FB7F894EC912E2B2C9386
:100390008FBFEACF3FB7F8948091B7019091B80131
:1003A000A091B901B091BA0126B5A89B05C02F3F15
:1003B00019F00196A11DB11D3FBFBA2FA92F982F8B
:1003C0008827BC01CD01620F711D811D911D42E086
:1003D000660F771F881F991F4A95D1F708958F924E
:1003E0009F92AF92BF92CF92DF92EF92FF924B011A
:1003F0005C010E94CA016B017C010E94CA016C1958
:100400007D098E099F09683E734081059105A8F317
:1004100021E0821A9108A108B10888EEC80E83E095
:10042000D81EE11CF11C81149104A104B10429F728
:10043000FF90EF90DF90CF90BF90AF909F908F9004
:100440000895CF92DF92EF92FF920F931F93CF9375
:10045000DF93CDB7DEB7C054D1400FB6F894DEBFFE
:100460000FBECDBF2FB7F8948091BB019091BC0116
:10047000A091BD01B091BE012FBF40916502509186
:10048000660260916702709168028C019D01041BF5
:10049000150B260B370BB901A801403D57406105EC
:1004A000710590F480916D02C05CDE4F0FB6F89438
:1004B000DEBF0FBECDBFDF91CF911F910F91FF9097
:1004C000EF90DF90CF90089580936502909366023D
:1004D000A0936702B09368021092600210925F02CC
:1004E00010925E0210925D0210925C0262E08091B6
:1004F00061020E948E0161E070E080E090E00E9465
:10050000EF0161E0809161020E948E0160E08091C4
:1005100061020E944201809162028551823020F581
:100520008BE291E10197F1F762E0809161020E9414
:100530008E0180916E0290E08230910538F0880F34
:10054000991F880F991F05970197F1F7F89480E09C
:100550000E940A016F3F7F4F8F4F9F4F61F41092AF
:100560006D02789480E0A0CF64E170E080E090E0DC
:100570000E94EF01D9CF81E00E940A016F3F7F4FB7
:100580008F4F9F4F61F38E010F5F1F4F6E018FEBF7
:10059000C81A8EEFD80A780180E00E940A01F7019C
:1005A000608371838283938381E00E940A01F70153
:1005B0006483758386839783F8E0EF0EF11CEC1457
:1005C000FD0451F7789430E020E0F801C080D1803C
:1005D000E280F3804481558166817781FFEFCF16F9
:1005E000DF06EF06FF0631F04F3F8FEF5807680731
:1005F000780719F410926D02B5CFF90183E0F595F3
:10060000E7958A95E1F7E45AFD4F8081880FC4167B
:10061000D506E606F70610F180832F5F3F4F085F8F
:100620001F4F2832310589F64091600220915C020B
:1006300080915D02280F3327331F80915E02280FBF
:10064000311D80915F02820F932F911D99274817CA
:10065000190681F681E080936D0226CF8160DCCFA0
:10066000AF92BF92CF92DF92EF92FF920F931F93C0
:10067000CF93DF936C017B018B01040F151FEB01FE
:100680005E01AE18BF08C017D10759F06991D601B5
:10069000ED91FC910190F081E02DC6010995892B27
:1006A00079F7C501DF91CF911F910F91FF90EF90E6
:1006B000DF90CF90BF90AF900895FC01538D448D93
:1006C000252F30E0842F90E0821B930B541710F0FD
:1006D000CF96089501970895FC01918D828D98170A
:1006E00061F0A28DAE0FBF2FB11D5D968C91928DE2
:1006F0009F5F9F73928F90E008958FEF9FEF089513
:10070000FC01918D828D981731F0828DE80FF11DDB
:10071000858D90E008958FEF9FEF0895FC01918DF6
:10072000228D892F90E0805C9F4F821B91098F73EF
:10073000992708958FEB91E00E948E0321E0892B89
:1007400009F420E0822F089580E090E0892B29F0C1
:100750000E949A0381110C9400000895FC01A48D5D
:10076000A80FB92FB11DA35ABF4F2C91848D90E0D3
:1007700001968F739927848FA689B7892C93A089B6
:10078000B1898C91837080648C93938D848D981340
:1007900006C00288F389E02D80818F7D80830895D3
:1007A000EF92FF920F931F93CF93DF93EC0181E0C1
:1007B000888F9B8D8C8D98131AC0E889F989808168
:1007C00085FF15C09FB7F894EE89FF896083E8899B
:1007D000F98980818370806480839FBF81E090E08D
:1007E000DF91CF911F910F91FF90EF900895F62E1A
:1007F0000B8D10E00F5F1F4F0F731127E02E8C8DB4
:100800008E110CC00FB607FCFACFE889F9898081F8
:1008100085FFF5CFCE010E94AE03F1CFEB8DEC0F3B
:10082000FD2FF11DE35AFF4FF0829FB7F8940B8F15
:10083000EA89FB8980818062CFCFCF93DF93EC017F
:10084000888D8823B9F0AA89BB89E889F9898C91B8
:1008500085FD03C0808186FD0DC00FB607FCF7CF74
:100860008C9185FFF2CF808185FFEDCFCE010E9474
:10087000AE03E9CFDF91CF9108952091AC01309183
:10088000AD012817390771F49091AA018091AB014D
:10089000981741F0E091AA01F0E0E659FE4F8081FF
:1008A00090E008958FEF9FEF08950895EF92FF92E3
:1008B0000F931F93CF93DF93DC015C96ED90FC9038
:1008C0005D97E114F10479F481E090E013969C9334
:1008D0008E93129790E080E0DF91CF911F910F915E
:1008E000FF90EF9008955196ED91FC91529750969C
:1008F0008C915097982F90950FB75E962C915E979C
:10090000122F127021FD6095F8942081112319F1A6
:10091000282B2083E7012197F1F728E0462F50E0AC
:10092000308160FF1AC0382B3083E7012197F1F73F
:10093000BA0175956795215089F7112381F080815F
:10094000892380830FBF5C968D919C910197F1F76D
:1009500081E090E0C1CF2923DCCF3923E5CF90811E
:10096000892BEFCF2091AC013091AD0128173907C9
:1009700061F48091AB012091AA0190E0805C9F4FCF
:10098000821B91098F739927089590E080E0089564
:100990002091AC013091AD0128173907B9F490913D
:1009A000AA018091AB01981789F0E091AA01F0E0CB
:1009B000E659FE4F80812091AA0130E02F5F3F4F22
:1009C0002F7333272093AA0190E008958FEF9FEFB4
:1009D0000895BF92CF92DF92EF92FF920F931F93F1
:1009E000CF93DF938C01B42E6C018EE0C80ED11C26
:1009F000D0E0C0E0E62EF12CB7010C2E02C07595B8
:100A000067950A94E2F76170F60181916F010E9487
:100A100042012196CB1580F361E0F80185850E94A3
:100A2000420160E0F8018585DF91CF911F910F9120
:100A3000FF90EF90DF90CF90BF900C944201FC01AB
:100A400086898F3F71F021853285662329F0232B1B
:100A500031F461E00C94420121303105D1F360E0C2
:100A6000F9CF0895EF92FF921F93CF93DF93EC019C
:100A7000162F7A0161E0812F0E948E011E8BFA866B
:100A8000E986E881F9810484F585E02D60E0CE01F6
:100A9000DF91CF911F91FF90EF9009940F931F93D7
:100AA000CF93DF93EC01162F042F61E0413009F062
:100AB00060E08B850E9442018C858F3F19F060E0D9
:100AC0000E944201023079F08C8148E084FD0CC024
:100AD000612F70E084E0759567958A95E1F744E0B1
:100AE000CE010E94E90444E0612FCE01DF91CF9155
:100AF0001F910F910C94E904DC01ED91FC910684A7
:100B0000F785E02D41E0099581E090E00895DC0152
:100B1000ED91FC910684F785E02D40E009940F9358
:100B20001F93CF93DF93EC01423018F08C818860E3
:100B30008C834F836887222329F0413019F48C81FC
:100B400084608C8364E670E080E090E00E94EF01B6
:100B50006C8164FD5CC0E881F9810684F785E02D35
:100B600042E063E0CE0109958BE496E40197F1F74A
:100B7000E881F9810684F785E02D42E063E0CE014B
:100B8000099503E512E0C8010197F1F7E881F981C1
:100B90000684F785E02D42E063E0CE010995C801A7
:100BA0000197F1F7E881F9810684F785E02D42E0AD
:100BB00062E0CE010995C8010197F1F76C8160628E
:100BC000CE010E9487058BEE90E00197F1F784E05B
:100BD0008D836CE0CE010E94870561E0CE010E940A
:100BE00087058BE39FE10197F1F782E08E8366E052
:100BF000CE010E948705E881F9810484F585E02D06
:100C00006FEFCE01DF91CF911F910F910994606238
:100C1000CE010E9487058BE496E40197F1F76C8181
:100C20006062CE010E94870503E512E0C8010197CA
:100C3000F1F76C816062CE010E948705BCCF0895F8
:100C40000895089590E080E00895CF92DF92EF92AA
:100C5000FF920F931F93CF93DF93CDB7DEB7289703
:100C60000FB6F894DEBF0FBECDBF8A01C09006015B
:100C7000D0900701E0900801F0900901CD82DE825A
:100C8000EF82F886C0900A01D0900B01E0900C0131
:100C9000F0900D01C982DA82EB82FC82909176029B
:100CA000691710F06FEF690F262F30E0409177023F
:100CB0002C0F3D1FF901403151F5943041F5618110
:100CC000680F60688FE692E00E948705F801448112
:100CD0005581608171818FE692E00E943003F801B6
:100CE000848195814197A8F068E18FE692E028968B
:100CF0000FB6F894DEBF0FBECDBFDF91CF911F912D
:100D00000F91FF90EF90DF90CF900C948705658155
:100D1000D7CF28960FB6F894DEBF0FBECDBFDF91B8
:100D2000CF911F910F91FF90EF90DF90CF9008959A
:100D30008F929F92AF92BF920F931F93CF93DF93A7
:100D4000CDB7DEB7A1970FB6F894DEBF0FBECDBF0B
:100D500019A2423008F44AE08E010F5D1F4F842E25
:100D6000912CB12CA12CA50194010E94B412E62F64
:100D7000B901CA01EA3044F5E05DD801EE938D0176
:100D8000232B242B252B79F790E080E0109769F036
:100D9000FD0101900020E9F73197AF014A1B5B0B81
:100DA000BD018FEB91E00E943003A1960FB6F8943D
:100DB000DEBF0FBECDBFDF91CF911F910F91BF90CE
:100DC000AF909F908F900895E95CD7CF0E94E71570
:100DD0000F931F93CF93DF93EC0188819981009744
:100DE00059F02A813B812617370730F081E0DF91E7
:100DF000CF911F910F9108958B016F5F7F4F0E94DC
:100E00002A15009759F0998388831B830A832C81C4
:100E10003D81232B59F7FC011082E8CF80E0E7CF1A
:100E2000EF92FF920F931F93CF93DF93611571059C
:100E300041F480E0DF91CF911F910F91FF90EF90EF
:100E4000089541155105B1F07B01EC010C811D8124
:100E5000040F151FB8010E94E806882351F328816A
:100E600039818C819D81B701820F931F0E94F515F6
:100E70001D830C8381E0DECFCF93DF93EC0188816B
:100E80009981009711F00E94A114198218821D8285
:100E90001C821B821A82DF91CF910895CF93DF933A
:100EA000EC01FB0101900020E9F73197AF01461BEF
:100EB000570B0E941007811103C0CE010E943C070E
:100EC000CE01DF91CF910895EF92FF920F931F9380
:100ED000CF93DF93EC017B018A01BA010E94E806FF
:100EE00081110BC0CE010E943C07CE01DF91CF9152
:100EF0001F910F91FF90EF9008951D830C83B70110
:100F0000888199810E94F515F0CFEF92FF920F939F
:100F10001F93CF93DF93CDB7DEB7A1970FB6F894A9
:100F2000DEBF0FBECDBF7C01CB01BA01F70111823C
:100F3000108213821282158214828E010F5F1F4F5E
:100F400022E044E00E94E40E0097C9F0FC01019009
:100F50000020E9F73197AF01481B590BBC01C701CD
:100F60000E946407A1960FB6F894DEBF0FBECDBFF6
:100F7000DF91CF911F910F91FF90EF900895C701DE
:100F80000E943C07EFCFEF92FF920F931F93CF93F6
:100F9000DF93CDB7DEB762970FB6F894DEBF0FBE12
:100FA000CDBF8C01CB01F801118210821382128215
:100FB000158214824AE09E012F5F3F4F7901B901EB
:100FC0000E94020FF70101900020E9F73197AF016D
:100FD0004E195F09B701C8010E94640762960FB6F7
:100FE000F894DEBF0FBECDBFDF91CF911F910F915F
:100FF000FF90EF900895FB01DC0111961C921E9268
:1010000013961C921E92129715961C921E9214977C
:101010008617970749F0608171816115710521F08C
:10102000448155810C9464070895FC01808191816D
:10103000009711F00C94A11408951F920F920FB60F
:101040000F9211242F933F938F939F93AF93BF934E
:101050008091BB019091BC01A091BD01B091BE01F6
:101060003091B60123E0230F2D3758F50196A11DCD
:10107000B11D2093B6018093BB019093BC01A09356
:10108000BD01B093BE018091B7019091B801A091CC
:10109000B901B091BA010196A11DB11D8093B701AC
:1010A0009093B801A093B901B093BA01BF91AF91E9
:1010B0009F918F913F912F910F900FBE0F901F9096
:1010C000189526E8230F0296A11DB11DD2CF1F92BD
:1010D0000F920FB60F9211242F933F934F935F936C
:1010E0006F937F938F939F93AF93BF93EF93FF93F0
:1010F0008FEB91E00E94AE03FF91EF91BF91AF9112
:101100009F918F917F916F915F914F913F912F911F
:101110000F900FBE0F901F9018951F920F920FB651
:101120000F9211242F938F939F93EF93FF93E0914E
:10113000CF01F091D0018081E091D501F091D601ED
:1011400082FD1BC090818091D8018F5F8F732091A9
:10115000D901821741F0E091D801F0E0E154FE4F4F
:10116000958F8093D801FF91EF919F918F912F914F
:101170000F900FBE0F901F9018958081F4CF1F9293
:101180000F920FB60F9211242F933F934F935F93BB
:101190006F937F938F939F93AF93BF93EF93FF933F
:1011A000E091AC01F091AD01309749F0A685B7858B
:1011B0008585968D91FF14C09C918923A1F4FF91A0
:1011C000EF91BF91AF919F918F917F916F915F91BF
:1011D0004F913F912F910F900FBE0F901F90189538
:1011E0009C91892361F7A389B4899C918589809515
:1011F00089238C93868997890197F1F7608D718D8A
:10120000A685B785558538E020E0CB010197F1F739
:10121000822F90E095958795282F4C91452309F0D2
:101220002068315091F7868D81FD20958091AB012A
:1012300090E001968F7399273091AA01381799F0A1
:10124000A091AB01B0E0A659BE4F2C938093AB01A7
:10125000828D938D0197F1F7A389B4898C9195893B
:10126000892B8C93ACCF868D8160868FF1CF0F93C5
:101270001F93CF93DF931092C2011092C10188EEA9
:1012800093E0A0E0B0E08093C3019093C401A093E9
:10129000C501B093C60122E131E03093C001209333
:1012A000BF0125EC30E03093CC012093CB0124EC3E
:1012B00030E03093CE012093CD0120EC30E030932C
:1012C000D0012093CF0121EC30E03093D201209364
:1012D000D10122EC30E03093D4012093D30126ECED
:1012E00030E03093D6012093D5011092D8011092AE
:1012F000D9011092DA011092DB0110923E03109294
:101300003D0380933F0390934003A0934103B09328
:10131000420388E391E090933C0380933B03109257
:1013200052031092510310925403109253031092DF
:101330005603109255031092580310925703609170
:1013400059036E7F6D7F609359036695617081E0EC
:10135000682789E00E94420161E089E00E948E01D5
:10136000E1EBF1E0E491E0934B03EDE9F1E0E4918E
:10137000F0E0EE0FFF1FE657FE4F8591949190939A
:101380004D0380934C0360E088E00E948E018091C1
:10139000590381FD04C061E088E00E94420188E0B9
:1013A00080934703E0EBF1E0E491E0934803ECE93C
:1013B000F1E0E491F0E0EE0FFF1FE058FE4F859161
:1013C000949190934A03809349031092860210925D
:1013D0008702109289021092880210928A0210925B
:1013E0008B0210928C0210928D0210928E0210923B
:1013F000900210928F02109291021092920210921B
:1014000093021092940210929502109297021092F9
:101410009602109298021092990210929A021092DB
:101420009B0210929C0210929E0210929D021092BA
:101430009F021092A0021092A1021092A20210929A
:10144000A30280E390E09093A5028093A4028EE42F
:1014500090E09093A9028093A8021092B00210929B
:10146000B1021092B2021092B3021092B402109222
:10147000B5021092BE021092BF021092C0021092EA
:10148000C1021092C2021092C3021092CC021092BA
:10149000CD021092D2021092D3021092D402109276
:1014A000D5021092DA021092DB021092E002109242
:1014B000E1021092E2021092E3021092E80210920E
:1014C000E9021092EE021092EF021092F0021092D6
:1014D000F1021092F6021092F7021092FC021092A2
:1014E000FD021092FE021092FF021092040310926D
:1014F000050310920A0310920B0310920C03109232
:101500000D03109212031092130382E080932303C1
:1015100010922403109225031092260310922803A0
:101520001092270310922A031092290310922B0382
:1015300010922C0310922D0310922E0310922F0361
:101540001092300310923103109232031092330341
:101550001092340310923503109236031092370321
:10156000109238031092390310923A031092140328
:10157000109272021092710224E231E030937002F4
:1015800020936F0297E090937A029FEF90937B02F3
:1015900096E090937C0295E090937D0294E0909386
:1015A0007E0293E090937F028093800210928102EA
:1015B000109282021092830210928402CDE7D2E050
:1015C00001E812E061E089910E948E010C171D076D
:1015D000C9F761E080917A020E948E0180917B02BE
:1015E0008F3F19F061E00E948E0161E080917C02E2
:1015F0000E948E011092730260E080917A020E9434
:10160000420160E080917C020E94420180917B0255
:101610008F3F19F060E00E9442018FEF80938502B6
:1016200010927902109278028CE0809361028BE034
:1016300080936202E4EBF1E0E491E0936302E0EA7C
:10164000F1E0E491E093640280E89EE3A0E0B0E082
:101650008093690290936A02A0936B02B0936C022C
:10166000DF91CF911F910F910895CF93DF93CDB765
:10167000DEB76B970FB6F894DEBF0FBECDBF789480
:1016800084B5826084BD84B5816084BD85B5826087
:1016900085BD85B5816085BD80916E008160809338
:1016A0006E001092810080918100826080938100A1
:1016B00080918100816080938100809180008160B1
:1016C000809380008091B10084608093B10080910C
:1016D000B00081608093B00080917A008460809334
:1016E0007A0080917A00826080937A0080917A00FB
:1016F000816080937A0080917A00806880937A007C
:101700001092C100E091CF01F091D00182E080837E
:10171000E091CB01F091CC011082E091CD01F091EC
:10172000CE018FEC80831092D701E091D301F0912C
:10173000D40186E08083E091D101F091D2018081D3
:1017400080618083E091D101F091D2018081886035
:101750008083E091D101F091D20180818068808303
:10176000E091D101F091D20180818F7D808320E0D2
:1017700042E060E18FE692E00E948F0562E0809196
:1017800061020E948E012FB7F8948091BB01909165
:10179000BC01A091BD01B091BE012FBF805D9740FB
:1017A000A109B1098093650290936602A093670234
:1017B000B093680287E380936E0261E08DE00E943F
:1017C0008E011092560310925503109254031092FA
:1017D000530310925203109251038DE991E09093BC
:1017E00058038093570390914703963108F047C000
:1017F0002DEB30E030935203209351032BE931E07D
:1018000030935403209353032CE231E0309356037A
:10181000209355032091680084E0983048F031E02F
:101820009E3008F430E081E001C0880F3A95EAF775
:10183000822B809368002DE630E0983050F02BE644
:1018400030E09E3030F02CE630E0963110F030E0A1
:1018500020E030934F0320934E03292F30E098303F
:1018600008F0ABC081E001C0880F9A95EAF7809339
:10187000500380915703909158030197F1F780919D
:10188000550390915603892B49F1E091AC01F091F9
:10189000AD0123E0EB33F20709F1309739F0A3896A
:1018A000B4899C918589809589238C938091590373
:1018B0008E7F809359031092AB011092AA018BE3A3
:1018C00093E09093AD018093AC01E0914E03F091D1
:1018D0004F03808190915003892B808398EE892E4D
:1018E00093E0992EA12CB12C2CE3222E312C8E01C9
:1018F0000F5F1F4F2FB7F8946091BB017091BC012F
:101900008091BD019091BE012FBFA50194010E945D
:10191000B412C901B1010E94A0129F938F93C90113
:1019200060E17EE00E94A0129B01B1010E94A01222
:101930007F936F933F932F9386E491E09F938F93D0
:101940001F930F930E94FC151F8A1E8A198E188EF2
:101950001B8E1A8EF80101900020E9F73197AF0134
:10196000401B510BB801CE0146960E946407BE0190
:101970006A5E7F4FC8010E94FB07A80170E060E02B
:1019800090E080E00E942506C8010E9415080E9490
:1019900021020FB6F894DEBF0FBECDBF882341F001
:1019A000809162028C3009F472C0A0F48B3069F12E
:1019B00060E070E080EC9FE750C09E3040F428501B
:1019C000310981E001C0880F2A95EAF750CF2E50E7
:1019D0003109F7CF8551823058F7F0905E026F2DB4
:1019E00070E0762F662766277F7780915F02682BED
:1019F00090E080E00E946E112DEC3CEC4CEC5DE33D
:101A00000E94AB11F7FE29C060C060915E0270E0D9
:101A100090E080E00E946E112B013C01F0905F028B
:101A2000F7FE0AC0AC019B0160E070E080E89FEB2C
:101A30000E94F0122B013C016F2D6F7070E090E05E
:101A400080E00E9470112DEC3CEC4CEC5DE30E94B8
:101A5000AB11A30192010E94F1120E94CF136B01FE
:101A60007093B1016093B0010E942102882351F06C
:101A7000809162028B3030F08D3048F18551823098
:101A800008F474C160E070E080EC9FE73CC07090A7
:101A90005E02672D70E090E080E00E946E116B01A5
:101AA0007C0160915F026F7070E090E080E00E94C6
:101AB00070112DEC3CEC4CEC5DE30E94AB11A701E6
:101AC00096010E94F11277FEC8CF9058C6CF609160
:101AD0005D0270E090E080E00E9470112DEC3CEC23
:101AE0004CEC5DE30E94AB112B013C0160915C0268
:101AF00070E090E080E00E9470119B01AC01C30196
:101B0000B2010E94F1120E94CF137093AF01609353
:101B1000AE01B601C8010E94C307B801CE010A9602
:101B20000E94FB0765E571E0CE010A960E944E0710
:101B3000BC01CE0140960E94FB07AE01405F5F4FA3
:101B400061E070E090E080E00E942506CE014096C2
:101B50000E941508CE010A960E941508C8010E942D
:101B600015086091AE017091AF01C8010E94C307D2
:101B7000B801CE010A960E94FB0767E571E0CE012D
:101B80000A960E944E07BC01CE0140960E94FB07B8
:101B9000AE01405F5F4F61E070E085E090E00E9441
:101BA0002506CE0140960E941508CE010A960E9495
:101BB0001508C8010E9415088BE393E00E94C80431
:101BC0006C01990FEE08FF084AE0C701B601F7FE65
:101BD0000DC06DE28FEB91E00E94D003662777275E
:101BE000CB016C197D098E099F094AE00E94980675
:101BF0001092870260918A0270918B0280918C0210
:101C000090918D020E946E1128E23BE64EE65EE462
:101C10000E945D136B017C016091880270918902C2
:101C200090E080E00E946E119B01AC01C701B601FB
:101C30000E94F11220918E02211190586093B201FE
:101C40007093B3018093B4019093B50160919102B8
:101C50007091920280919302909194020E946E1171
:101C600028E23BE64EE65EE40E945D136B017C01D8
:101C700060918F027091900290E080E00E946E115E
:101C80009B01AC01C701B6010E94F112AB01BC017E
:101C90008091950281117058C8010E94850740917A
:101CA000B2015091B3016091B4017091B501CE01C0
:101CB0000A960E948507198A188A1B8A1A8A1D8A21
:101CC0001C8A4AE050E069E571E0CE0140960E942E
:101CD00064074E855F856A857B85CE0140960E94AC
:101CE0001007811104C0CE0140960E943C0764E6B3
:101CF00071E0CE0140960E944E077C014D815E81CD
:101D000069817A810E941007811103C0C7010E9476
:101D10003C07F70144815581608171818FEB91E02F
:101D20000E94300342E050E067E671E08FEB91E003
:101D30000E943003CE0140960E941508CE010A96FB
:101D40000E941508C8010E941508CE0146960E94FF
:101D5000150820E030E0232B09F4CCCD0E949A0333
:101D6000882309F4C7CD0E940000C4CD60915C02B5
:101D700070915D0276276727762790E080E00E94C9
:101D80006E112DEC3CEC4CEC5DE30E94AB11BBCE34
:101D900088E391E090933C0380933B038091AC01F6
:101DA0009091AD018B53934071F4E0914E03F0910B
:101DB0004F039081809150038095892380831092F6
:101DC000AD011092AC010895EF920F931F93CF9342
:101DD000DF93E80134E047FD34E1042E000C550B9D
:101DE00057FF03C0519541955109E32E022F242F2F
:101DF000AE010E94270FCE01DF91CF911F910F916D
:101E0000EF900895BB274A3031F4992322F4BDE2C4
:101E1000909581959F4F0C940E0FBB27FB01552782
:101E2000AA27880F991FAA1FA41710F0A41B839537
:101E30005051B9F7A05DAA3308F0A95DA1930097AE
:101E400079F7B111B1931192CB010C945E11A9E015
:101E5000B0E0EDE2FFE00C946F126A01F22EB02EBA
:101E6000102FFBE3AF2EA01608F41BE31F5F012F1A
:101E700027E0AE014F5F5F4F0E948610BC01898151
:101E8000982F9970913009F43FC09BE2E1FC04C0A7
:101E90009E2D9170E0FC3AC05E2D5071E82FE870E5
:101EA00083FF46C084E0911101C083E0EF2DE81B61
:101EB0008F1508F0E0E0D6018E2F20E2552351F176
:101EC000992329F0D6019C93C60101966C019601D5
:101ED0002D5F3F4FE2FE24C08EE4D6018C9391E447
:101EE00011969C93119712968C93D9018E2F90E2A4
:101EF00081111BC0E20FF32FF11D10828EEF9FEFB7
:101F00002996ECE00C948B129DE2C6CF90E2C4CFF0
:101F10002D9381508111FCCFCE0ED11CE0E0D0CFAB
:101F20008EE6D6018C9391E6DBCF9D938150E0CF76
:101F3000482F447082FF3DC084E0911101C083E0CE
:101F40008F1510F4EF2DE81BD6018E2F20E25523BC
:101F500009F1992329F0D6019C93C60101966C01E1
:101F600096012D5F3F4FE2FE1BC089E4D6018C93A2
:101F70008EE411968C93119786E412968C93D90176
:101F80008E2F90E2882309F4B5CF9D938150FACF2C
:101F90002D9381508111FCCFCE0ED11CE0E0D9CF22
:101FA00089E6D6018C938EE611968C93119786E67E
:101FB000E4CF9B0177FF02C030E020E0A1E0B0E079
:101FC000911102C0B0E0A0E0F9013196AE0FBF1F41
:101FD0008B2C912CBB2009F461C05401EFEFAE1A99
:101FE000BE0AAA0DBB1DFA161B0619F014F04F2DE0
:101FF0004A1B511188C0E3FC59C07601A42FB0E2FE
:10200000A1114FC0C40ED11C992309F45BC040E05C
:10201000D6011196F60190836D01552309F448C04D
:10202000012F060F9A81582F507184FF03C09133FE
:1020300009F4015010160CF047C0093008F008E010
:10204000EEE2FE2E5B01A01AB10885019194819405
:1020500091082F3F320729F4D601FC92F601319600
:102060006F016217730794F1021713077CF5DB0108
:10207000A21BB30BAA24A394B12CAC0EBD1EAA0DB7
:10208000BB1D11968C9121503109D601119628154E
:102090003905F4F0F60180836D01DBCFB12CA12C62
:1020A000A0CFF701B1937F01A150AACF9111B0CF7A
:1020B000D601942F50E302C05D9391509111FCCF53
:1020C000C40ED11C40E0ACCF01E0BACF80E3DBCF3F
:1020D0006217730731F4963388F4953311F455235E
:1020E00069F0F6018083FD01842F90E2811108C020
:1020F000A40FB11D1C9290E080E002CF81E3F1CFEC
:1021000091938150F3CF911183CF8ACF283008F07B
:1021100027E03327DA01990F311D87FD9160009682
:102120006105710539F432602E5F3D9330E32A95E5
:10213000E1F708959F3F30F080387105610509F09F
:102140003C5F3C5F3D93913008F08068911DDF93C8
:10215000CF931F930F93FF92EF92192F987F96952D
:10216000E92F96959695E90FFF27EE53FF4F992794
:102170003327EE24FF24A701E70105900894079474
:1021800028F4360FE71EF81E491F511D660F771FF2
:10219000881F991F0694A1F70590079428F4E70E6D
:1021A000F81E491F561FC11D770F881F991F661FF4
:1021B0000694A1F70590079428F4F80E491F561FBE
:1021C000C71FD11D880F991F661F771F0694A1F79F
:1021D0000590079420F4490F561FC71FD81F990F69
:1021E000661F771F881F0694A9F7849110951770B2
:1021F00041F0D695C79557954795F794E7941A956A
:10220000C1F7E8E6F0E06894159015913591659175
:10221000959105907FE27395E118F10A430B560BF7
:10222000C90BD009C0F7E10CF11E431F561FC91F8F
:10223000D01D7EF4703311F48A95E6CFE8940150F6
:1022400030F0080F0AF40027021708F4202F239516
:10225000022F7A3328F079E37D932A95E9F710C0AD
:102260007D932A9589F606949795679537951795E6
:102270001794E118F10A430B560BC90BD00998F0DB
:1022800023957E9173957A3308F070E37C93201345
:10229000B8F77E9170617D9330F0839571E37D9303
:1022A00070E32A95E1F71124EF90FF900F911F91B1
:1022B000CF91DF91992787FD90950895DC01FC016E
:1022C000672F71917723E1F7329704C07C916D936A
:1022D00070836291AE17BF07C8F30895E89409C0F0
:1022E00097FB3EF490958095709561957F4F8F4F49
:1022F0009F4F9923A9F0F92F96E9BB279395F6955F
:10230000879577956795B795F111F8CFFAF4BB0FDC
:1023100011F460FF1BC06F5F7F4F8F4F9F4F16C040
:10232000882311F096E911C0772321F09EE8872FCA
:10233000762F05C0662371F096E8862F70E060E086
:102340002AF09A95660F771F881FDAF7880F9695FF
:10235000879597F908950E94BE110C942F120E9440
:10236000211238F00E94281220F0952311F00C94CD
:1023700018120C941E1211240C9463120E94401225
:1023800070F3959FC1F3950F50E0551F629FF001C8
:10239000729FBB27F00DB11D639FAA27F00DB11DE1
:1023A000AA1F649F6627B00DA11D661F829F22276A
:1023B000B00DA11D621F739FB00DA11D621F839FF1
:1023C000A00D611D221F749F3327A00D611D231FC7
:1023D000849F600D211D822F762F6A2F11249F5715
:1023E00050409AF0F1F088234AF0EE0FFF1FBB1F18
:1023F000661F771F881F91505040A9F79E3F5105D7
:1024000080F00C9418120C9463125F3FE4F3983E32
:10241000D4F3869577956795B795F795E7959F5F80
:10242000C1F7FE2B880F911D9695879597F9089512
:1024300097F99F6780E870E060E008959FEF80EC77
:10244000089500240A94161617061806090608951A
:1024500000240A9412161306140605060895092E80
:102460000394000C11F4882352F0BB0F40F4BF2BEF
:1024700011F460FF04C06F5F7F4F8F4F9F4F08952F
:1024800057FD9058440F551F59F05F3F71F0479525
:10249000880F97FB991F61F09F3F79F0879508950A
:1024A000121613061406551FF2CF4695F1DF08C029
:1024B000161617061806991FF1CF86957105610546
:1024C00008940895E894BB2766277727CB0197F9EE
:1024D00008952F923F924F925F926F927F928F92C8
:1024E0009F92AF92BF92CF92DF92EF92FF920F93A3
:1024F0001F93CF93DF93CDB7DEB7CA1BDB0B0FB6AD
:10250000F894DEBF0FBECDBF09942A883988488869
:102510005F846E847D848C849B84AA84B984C884FF
:10252000DF80EE80FD800C811B81AA81B981CE0FF6
:10253000D11D0FB6F894DEBF0FBECDBFED010895DB
:1025400097FB072E16F4009407D077FD09D00E9460
:10255000D61207FC05D03EF4909581959F4F0895C3
:10256000709561957F4F0895A1E21A2EAA1BBB1B9F
:10257000FD010DC0AA1FBB1FEE1FFF1FA217B3074F
:10258000E407F50720F0A21BB30BE40BF50B661F65
:10259000771F881F991F1A9469F760957095809529
:1025A00090959B01AC01BD01CF010895AA1BBB1BF7
:1025B00051E107C0AA1FBB1FA617B70710F0A61B43
:1025C000B70B881F991F5A95A9F780959095BC0164
:1025D000CD010895EE0FFF1F0590F491E02D0994B1
:1025E0005058BB27AA270E9408130C942F120E9450
:1025F000211238F00E94281220F039F49F3F19F47C
:1026000026F40C941E120EF4E095E7FB0C941812BD
:10261000E92F0E94401258F3BA1762077307840724
:10262000950720F079F4A6F50C9462120EF4E0956B
:102630000B2EBA2FA02D0B01B90190010C01CA017C
:10264000A0011124FF27591B99F0593F50F4503E27
:1026500068F11A16F040A22F232F342F4427585F19
:10266000F3CF469537952795A795F0405395C9F731
:102670007EF41F16BA0B620B730B840BBAF09150E9
:10268000A1F0FF0FBB1F661F771F881FC2F70EC088
:10269000BA0F621F731F841F48F48795779567955B
:1026A000B795F7959E3F08F0B0CF9395880F08F047
:1026B0009927EE0F9795879508950E9471130C94B2
:1026C0002F120E94281258F00E94211240F029F483
:1026D0005F3F29F00C94181251110C9463120C9462
:1026E0001E120E94401268F39923B1F3552391F30F
:1026F000951B550BBB27AA2762177307840738F071
:102700009F5F5F4F220F331F441FAA1FA9F335D0CD
:102710000E2E3AF0E0E832D091505040E695001C81
:10272000CAF72BD0FE2F29D0660F771F881FBB1F3B
:10273000261737074807AB07B0E809F0BB0B802D19
:10274000BF01FF2793585F4F3AF09E3F510578F045
:102750000C9418120C9463125F3FE4F3983ED4F388
:10276000869577956795B795F7959F5FC9F7880F19
:10277000911D9695879597F90895E1E0660F771F6B
:10278000881FBB1F621773078407BA0720F0621BFC
:10279000730B840BBA0BEE1F88F7E09508950E9427
:1027A000D6136894B1110C94631208950E944812D4
:1027B00088F09F5798F0B92F9927B751B0F0E1F002
:1027C000660F771F881F991F1AF0BA95C9F714C0B2
:1027D000B13091F00E946212B1E008950C9462123F
:1027E000672F782F8827B85F39F0B93FCCF38695EB
:1027F00077956795B395D9F73EF490958095709548
:1028000061957F4F8F4F9F4F08950F931F93CF93E5
:10281000DF938230910510F482E090E0E0915C0358
:10282000F0915D0330E020E0B0E0A0E0309799F453
:102830002115310509F44AC0281B390B2430310514
:10284000D8F58A819B816115710589F1FB0193831C
:102850008283FE0111C0408151810281138148179A
:102860005907E0F04817590799F4109761F012964C
:102870000C93129713961C933296CF01DF91CF9150
:102880001F910F91089500935C0310935D03F4CFA3
:102890002115310551F04217530738F0A901DB012A
:1028A0009A01BD01DF01F801C1CFEF01F9CF90938B
:1028B0005D0380935C03CDCFFE01E20FF31F819394
:1028C00091932250310939832883D7CF20915A031D
:1028D00030915B03232B41F42091020130910301DD
:1028E00030935B0320935A03209100013091010142
:1028F0002115310541F42DB73EB7409104015091A7
:102900000501241B350BE0915A03F0915B03E2179C
:10291000F307A0F42E1B3F0B2817390778F0AC0102
:102920004E5F5F4F2417350748F04E0F5F1F5093DF
:102930005B0340935A03819391939FCFF0E0E0E0D3
:102940009CCFCF93DF930097E9F0FC01329713827D
:102950001282A0915C03B0915D03ED0130E020E0B4
:102960001097A1F420813181820F931F20915A0387
:1029700030915B032817390709F061C0F0935B03BE
:10298000E0935A03DF91CF910895EA01CE17DF0754
:10299000E8F54A815B819E0141155105B1F7E901D6
:1029A000FB83EA8349915991C40FD51FEC17FD07AA
:1029B00061F4808191810296840F951FE9019983CA
:1029C0008883828193819B838A83F0E0E0E0129682
:1029D0008D919C9113970097B9F52D913C9111978A
:1029E000CD010296820F931F20915A0330915B0311
:1029F0002817390739F6309751F510925D03109278
:102A00005C03B0935B03A0935A03BCCFD383C28310
:102A100040815181840F951FC817D90761F44E5F1B
:102A20005F4F88819981480F591F518340838A8164
:102A30009B81938382832115310509F0B0CFF093F8
:102A40005D03E0935C039ECFFD01DC01C0CF1382E8
:102A50001282D7CFB0E0A0E0E0E3F5E10C946B1276
:102A60008C01009751F4CB010E9405148C01C80120
:102A7000CDB7DEB7E0E10C948712FC01E60FF71F3B
:102A80009C0122503109E217F30708F49DC0D901D7
:102A9000CD91DC911197C617D70798F0C530D105B5
:102AA00030F3CE0104978617970708F3C61BD70BA0
:102AB0002297C193D1936D937C93CF010E94A1146F
:102AC000D6CF5B01AC1ABD0A4C018C0E9D1EA091A5
:102AD0005C03B0915D03512C412CF12CE12C10973B
:102AE00031F580915A0390915B038815990509F09F
:102AF0005CC04616570608F058C0809100019091BE
:102B00000101009741F48DB79EB7409104015091A7
:102B10000501841B950BE817F90708F055C0F093E1
:102B20005B03E0935A03F90171836083A0CF8D9119
:102B30009C91119712966C90129713967C90139714
:102B4000A815B90559F56C0142E0C40ED11CCA1490
:102B5000DB0420F1AC014A195B09DA0112961597E2
:102B600080F06282738251834083D9016D937C939C
:102B7000E114F10471F0D7011396FC93EE931297D0
:102B800076CF22968C0F9D1FF90191838083F301EC
:102B9000EFCFF0935D03E0935C0369CF48165906CD
:102BA00008F42C017D01D3019ACFCB010E940514BA
:102BB0007C01009749F0AE01B8010E94EC15C801F4
:102BC0000E94A114870153CF10E000E050CF81E0B4
:102BD00090E0F8940C949D18FB01DC0102C0019078
:102BE0000D9241505040D8F70895FB01DC0101904F
:102BF0000D920020E1F70895AEE0B0E0E2E0F6E1EA
:102C00000C9477120D891E8986E08C831A830983C0
:102C10008FEF9FE79E838D83AE01475E5F4F6F8985
:102C2000788DCE0101960E941F162F813885020FE4
:102C3000131FF80110822E96E4E00C949312ABE07F
:102C4000B0E0E5E2F6E10C9469127C013B018A01F7
:102C5000FC0117821682838181FFC8C1CE010196D3
:102C60005C01F7019381F30193FD859193FF8191BD
:102C70003F01882309F453C1853239F493FD8591CE
:102C800093FF81913F01853229F4B70190E00E94C2
:102C90000F18E7CF912C212C312CFFE1F31538F0E0
:102CA0008B3211F190F4803209F1833229F137FC33
:102CB0003CC020ED280F2A3050F536FE20C08AE0B7
:102CC000989E200D1124922E06C08D3291F08033F3
:102CD00071F7689430F8F30193FD859193FF81912A
:102CE0003F018111DACF21C0689431F8689432F83D
:102CF000F2CF689433F8EFCF689434F8ECCFEAE081
:102D00002E9E200D1124222E689435F8E4CF8E32A9
:102D100029F436FC04C1689436F8DDCF8C3619F4FA
:102D2000689437F8D8CF8836B1F2982F9F7D9554A4
:102D30009330E0F08336A1F18337C1F1833509F098
:102D400063C02801F2E04F0E511CF801C080D18011
:102D5000692D70E036FC02C06FEF7FEFC6010E9464
:102D6000F9174C01689437F882010AC00C5F1F4FB5
:102D7000FFE3F98388248394912C6501E89437F864
:102D800033FE2DC0522C8114910471F5552009F4A5
:102D900068CFB70180E290E00E940F185A94F6CFF6
:102DA000F801808189830E5F1F4FE4CF2801F2E094
:102DB0004F0E511CF801C080D180692D70E036FCA7
:102DC00002C06FEF7FEFC6010E9404184C01820120
:102DD000D5CFB70180E290E00E940F182A94281402
:102DE000190409F0B0F7CECFF60137FC859137FE14
:102DF00081916F01B70190E00E940F1851105A9411
:102E0000F1E08F1A9108BFCF843619F0893609F0A6
:102E100077C0F80137FE6BC0608171818281938138
:102E20000C5F1F4FF32DFF763F2E97FF09C0909543
:102E30008095709561957F4F8F4F9F4F689437F8BD
:102E40002AE030E0A5010E943F18C82ECA188C2C39
:102E5000432C36FE0CC0E89440F8C91440F434FE0C
:102E600005C032FC03C0F32DFE7E4F2E892C44FE9C
:102E700095C0FE01EC0DF11D8081803309F087C003
:102E8000242D297E422E842D8870582E43FC95C017
:102E900040FE8FC09C2C821418F42C0C922C981895
:102EA00044FE91C0B70180E390E00E940F1842FEFB
:102EB00009C088E790E041FE02C088E590E0B701D4
:102EC0000E940F18C91408F48AC0CA94D12C9FEF2D
:102ED000C91AD90ACA0CDB1CF60182916F01B7012D
:102EE00090E00E940F18AC14BD04B1F74FCF608181
:102EF0007181072E000C880B990B0E5F1F4F92CF2C
:102F0000D32CE894D4F82AE030E0853739F1232D2A
:102F1000297FD22E8F3601F148F48835A9F0F701C8
:102F2000868197812B96E2E10C948512803749F0D7
:102F30008837A9F7D4FE02C06894D2F820E130E0C7
:102F40000DC06894D4F8F6CF34FE03C0822F86609B
:102F5000D82E20E132E002C028E030E0F801D7FEB0
:102F60000FC060817181828193810C5F1F4FA50129
:102F70000E943F18C82ECA183D2CE89437F867CF36
:102F80006081718190E080E00E5F1F4FF0CF42FCC6
:102F900002C0839478CF8394839475CF842D8678F0
:102FA00009F471CFF6CFB70180E290E00E940F18CC
:102FB00083948214C0F3512C73CF522C581882146E
:102FC00008F46ECFF8CF842D867809F47BCF8BE29E
:102FD00041FE80E247FC8DE2B70190E071CFB7017E
:102FE00080E390E00E940F189A946CCF8FEF9FEFD0
:102FF00099CFFC010590615070400110D8F7809581
:1030000090958E0F9F1F0895FC01615070400190B4
:103010000110D8F7809590958E0F9F1F08950F93FC
:103020001F93CF93DF93182F092FEB018B8181FD25
:1030300009C01FEF0FEF812F902FDF91CF911F91CC
:103040000F91089582FF14C02E813F818C819D8154
:10305000281739073CF4E881F981CF01019699835B
:10306000888310838E819F8101969F838E83E3CF17
:10307000E885F985812F0995892BA1F3DACFFA012B
:10308000AA27283051F1203181F1E8946F936E7FA7
:103090006E5F7F4F8F4F9F4FAF4FB1E03ED0B4E098
:1030A0003CD0670F781F891F9A1FA11D680F791FD9
:1030B0008A1F911DA11D6A0F711D811D911DA11DEA
:1030C00020D009F468943F912AE0269F11243019FA
:1030D000305D3193DEF6CF010895462F4770405D95
:1030E0004193B3E00FD0C9F7F6CF462F4F70405D44
:1030F0004A3318F0495D31FD4052419302D0A9F79F
:10310000EACFB4E0A6959795879577956795BA9598
:10311000C9F700976105710508959B01AC010A2E5E
:1031200006945795479537952795BA95C9F7620F35
:10313000731F841F951FA01D089510E0CFEDD0E0F0
:1031400004C0FE010E94EA122196C03ED107C9F7D1
:04315000F894FFCF21
:1031540000005E0380000040145400401050000042
:103164000000D00330035D031D048E036C03800351
:10317400000000007C053003220621068F0532057D
:103184001F054E05000000005604300322065504B6
:10319400B204C8043D04253032643A253032643A1E
:1031A4002530326400430025004C6F636174696FFD
:0A31B4006E3A20002C20000D0A00E6
:00000001FF
